{
  "_format": "hh-sol-artifact-1",
  "contractName": "CrowdfundingPakistan",
  "sourceName": "contracts/CrowdfundingPakistan.sol",
  "abi": [
    {
      "inputs": [],
      "stateMutability": "nonpayable",
      "type": "constructor"
    },
    {
      "anonymous": false,
      "inputs": [
        {
          "indexed": true,
          "internalType": "uint256",
          "name": "_id",
          "type": "uint256"
        },
        {
          "indexed": true,
          "internalType": "address",
          "name": "_owner",
          "type": "address"
        },
        {
          "indexed": true,
          "internalType": "uint256",
          "name": "_deadline",
          "type": "uint256"
        },
        {
          "indexed": false,
          "internalType": "uint256",
          "name": "target",
          "type": "uint256"
        }
      ],
      "name": "CampainCreated",
      "type": "event"
    },
    {
      "anonymous": false,
      "inputs": [
        {
          "indexed": true,
          "internalType": "uint256",
          "name": "id",
          "type": "uint256"
        },
        {
          "indexed": true,
          "internalType": "enum CrowdfundingPakistan.campain_status_option",
          "name": "_status",
          "type": "uint8"
        }
      ],
      "name": "CampainTerminated",
      "type": "event"
    },
    {
      "anonymous": false,
      "inputs": [
        {
          "indexed": true,
          "internalType": "uint256",
          "name": "id",
          "type": "uint256"
        },
        {
          "indexed": true,
          "internalType": "address",
          "name": "donator",
          "type": "address"
        },
        {
          "indexed": true,
          "internalType": "uint256",
          "name": "donation",
          "type": "uint256"
        }
      ],
      "name": "DonatedToCampain",
      "type": "event"
    },
    {
      "anonymous": false,
      "inputs": [
        {
          "indexed": true,
          "internalType": "uint256",
          "name": "id",
          "type": "uint256"
        },
        {
          "indexed": true,
          "internalType": "uint256",
          "name": "amount",
          "type": "uint256"
        }
      ],
      "name": "FundsReleased",
      "type": "event"
    },
    {
      "anonymous": false,
      "inputs": [
        {
          "indexed": true,
          "internalType": "address",
          "name": "to",
          "type": "address"
        },
        {
          "indexed": true,
          "internalType": "uint256",
          "name": "amount",
          "type": "uint256"
        }
      ],
      "name": "Withdrawed",
      "type": "event"
    },
    {
      "inputs": [
        {
          "internalType": "string",
          "name": "_title",
          "type": "string"
        },
        {
          "internalType": "string",
          "name": "_description",
          "type": "string"
        },
        {
          "internalType": "uint256",
          "name": "_target",
          "type": "uint256"
        },
        {
          "internalType": "uint256",
          "name": "_deadline",
          "type": "uint256"
        },
        {
          "internalType": "string",
          "name": "_image",
          "type": "string"
        },
        {
          "internalType": "string",
          "name": "_destinationNGO",
          "type": "string"
        }
      ],
      "name": "createCampain",
      "outputs": [],
      "stateMutability": "nonpayable",
      "type": "function"
    },
    {
      "inputs": [
        {
          "internalType": "uint256",
          "name": "_id",
          "type": "uint256"
        }
      ],
      "name": "donateToCampain",
      "outputs": [],
      "stateMutability": "payable",
      "type": "function"
    },
    {
      "inputs": [],
      "name": "getActiveCampains",
      "outputs": [
        {
          "components": [
            {
              "internalType": "address",
              "name": "owner",
              "type": "address"
            },
            {
              "internalType": "string",
              "name": "title",
              "type": "string"
            },
            {
              "internalType": "string",
              "name": "description",
              "type": "string"
            },
            {
              "internalType": "uint256",
              "name": "target",
              "type": "uint256"
            },
            {
              "internalType": "uint256",
              "name": "deadline",
              "type": "uint256"
            },
            {
              "internalType": "string",
              "name": "image",
              "type": "string"
            },
            {
              "internalType": "string",
              "name": "destinationNGO",
              "type": "string"
            }
          ],
          "internalType": "struct CrowdfundingPakistan.Campain[]",
          "name": "",
          "type": "tuple[]"
        },
        {
          "internalType": "uint256[]",
          "name": "",
          "type": "uint256[]"
        }
      ],
      "stateMutability": "view",
      "type": "function"
    },
    {
      "inputs": [],
      "name": "getAllMyCampains",
      "outputs": [
        {
          "components": [
            {
              "internalType": "address",
              "name": "owner",
              "type": "address"
            },
            {
              "internalType": "string",
              "name": "title",
              "type": "string"
            },
            {
              "internalType": "string",
              "name": "description",
              "type": "string"
            },
            {
              "internalType": "uint256",
              "name": "target",
              "type": "uint256"
            },
            {
              "internalType": "uint256",
              "name": "deadline",
              "type": "uint256"
            },
            {
              "internalType": "string",
              "name": "image",
              "type": "string"
            },
            {
              "internalType": "string",
              "name": "destinationNGO",
              "type": "string"
            }
          ],
          "internalType": "struct CrowdfundingPakistan.Campain[]",
          "name": "",
          "type": "tuple[]"
        },
        {
          "internalType": "uint256[]",
          "name": "",
          "type": "uint256[]"
        }
      ],
      "stateMutability": "view",
      "type": "function"
    },
    {
      "inputs": [
        {
          "internalType": "uint256",
          "name": "_id",
          "type": "uint256"
        }
      ],
      "name": "getAmountCollected",
      "outputs": [
        {
          "internalType": "uint256",
          "name": "",
          "type": "uint256"
        }
      ],
      "stateMutability": "view",
      "type": "function"
    },
    {
      "inputs": [
        {
          "internalType": "uint256",
          "name": "_id",
          "type": "uint256"
        }
      ],
      "name": "getCampainById",
      "outputs": [
        {
          "components": [
            {
              "internalType": "address",
              "name": "owner",
              "type": "address"
            },
            {
              "internalType": "string",
              "name": "title",
              "type": "string"
            },
            {
              "internalType": "string",
              "name": "description",
              "type": "string"
            },
            {
              "internalType": "uint256",
              "name": "target",
              "type": "uint256"
            },
            {
              "internalType": "uint256",
              "name": "deadline",
              "type": "uint256"
            },
            {
              "internalType": "string",
              "name": "image",
              "type": "string"
            },
            {
              "internalType": "string",
              "name": "destinationNGO",
              "type": "string"
            }
          ],
          "internalType": "struct CrowdfundingPakistan.Campain",
          "name": "",
          "type": "tuple"
        }
      ],
      "stateMutability": "view",
      "type": "function"
    },
    {
      "inputs": [
        {
          "internalType": "uint256",
          "name": "_id",
          "type": "uint256"
        }
      ],
      "name": "getDonators",
      "outputs": [
        {
          "components": [
            {
              "internalType": "address",
              "name": "_donator",
              "type": "address"
            },
            {
              "internalType": "uint256",
              "name": "_donation",
              "type": "uint256"
            }
          ],
          "internalType": "struct CrowdfundingPakistan.Donation[]",
          "name": "",
          "type": "tuple[]"
        }
      ],
      "stateMutability": "view",
      "type": "function"
    },
    {
      "inputs": [
        {
          "internalType": "uint256",
          "name": "_id",
          "type": "uint256"
        }
      ],
      "name": "getNoOfDonators",
      "outputs": [
        {
          "internalType": "uint256",
          "name": "",
          "type": "uint256"
        }
      ],
      "stateMutability": "view",
      "type": "function"
    },
    {
      "inputs": [
        {
          "internalType": "uint256",
          "name": "_id",
          "type": "uint256"
        }
      ],
      "name": "getStatus",
      "outputs": [
        {
          "internalType": "enum CrowdfundingPakistan.campain_status_option",
          "name": "",
          "type": "uint8"
        }
      ],
      "stateMutability": "view",
      "type": "function"
    },
    {
      "inputs": [],
      "name": "myBalance",
      "outputs": [
        {
          "internalType": "uint256",
          "name": "",
          "type": "uint256"
        }
      ],
      "stateMutability": "view",
      "type": "function"
    },
    {
      "inputs": [],
      "name": "myFundingDetails",
      "outputs": [
        {
          "internalType": "uint256[]",
          "name": "",
          "type": "uint256[]"
        },
        {
          "internalType": "uint256[]",
          "name": "",
          "type": "uint256[]"
        }
      ],
      "stateMutability": "view",
      "type": "function"
    },
    {
      "inputs": [],
      "name": "noOfCampains",
      "outputs": [
        {
          "internalType": "uint256",
          "name": "",
          "type": "uint256"
        }
      ],
      "stateMutability": "view",
      "type": "function"
    },
    {
      "inputs": [
        {
          "internalType": "uint256",
          "name": "_id",
          "type": "uint256"
        }
      ],
      "name": "releseFunds",
      "outputs": [],
      "stateMutability": "nonpayable",
      "type": "function"
    },
    {
      "inputs": [
        {
          "internalType": "uint256",
          "name": "_id",
          "type": "uint256"
        }
      ],
      "name": "terminateCampain",
      "outputs": [],
      "stateMutability": "nonpayable",
      "type": "function"
    },
    {
      "inputs": [],
      "name": "withdraw",
      "outputs": [],
      "stateMutability": "nonpayable",
      "type": "function"
    }
  ],
  "bytecode": "0x6080604052600060025534801561001557600080fd5b506001600081905580546001600160a01b0319163317905561216e8061003c6000396000f3fe6080604052600436106100e85760003560e01c806356c436511161008a5780639d83623e116100595780639d83623e14610283578063a80739ac146102b0578063c9116b69146102d0578063ec489012146102f257600080fd5b806356c43651146101d95780635c622a0e146102065780635ca194a4146102435780639a5dc3f61461025657600080fd5b80630fa91fa9116100c65780630fa91fa9146101505780633ccfd60b1461017d5780633fab547d1461019257806346e77dc7146101b657600080fd5b80630c980ba8146100ed5780630e5e3eaa1461010f5780630f246f351461013b575b600080fd5b3480156100f957600080fd5b5061010d610108366004611c8b565b610312565b005b34801561011b57600080fd5b506101246104ca565b604051610132929190611e63565b60405180910390f35b34801561014757600080fd5b506101246108c8565b34801561015c57600080fd5b5061017061016b366004611ed0565b610cab565b6040516101329190611ee9565b34801561018957600080fd5b5061010d610e1b565b34801561019e57600080fd5b506101a860025481565b604051908152602001610132565b3480156101c257600080fd5b506101cb610ef8565b604051610132929190611f41565b3480156101e557600080fd5b506101a86101f4366004611ed0565b60009081526006602052604090205490565b34801561021257600080fd5b50610236610221366004611ed0565b60009081526004602052604090205460ff1690565b6040516101329190611f7c565b61010d610251366004611ed0565b611041565b34801561026257600080fd5b506101a8610271366004611ed0565b60009081526005602052604090205490565b34801561028f57600080fd5b506102a361029e366004611ed0565b611357565b6040516101329190611fa4565b3480156102bc57600080fd5b5061010d6102cb366004611ed0565b611620565b3480156102dc57600080fd5b50336000908152600860205260409020546101a8565b3480156102fe57600080fd5b5061010d61030d366004611ed0565b6116d6565b8242811161037b5760405162461bcd60e51b815260206004820152602b60248201527f54686520646561646c696e652073686f756c642062652061206461746520696e60448201526a207468652066757475726560a81b60648201526084015b60405180910390fd5b600060036000610397600160025461194490919063ffffffff16565b815260208082019290925260400160002080546001600160a01b0319163317815589519092506103cf916001840191908b0190611b09565b5086516103e590600283019060208a0190611b09565b50600381018690556004810185905583516104099060058301906020870190611b09565b50825161041f9060068301906020860190611b09565b5060006004600061043c600160025461194490919063ffffffff16565b81526020810191909152604001600020805460ff1916600183600381111561046657610466611f66565b0217905550600254610479906001611944565b60028190558590339061048d906001611944565b6040518981527f4481bba8dcbc42059a1ab61eb4a03cc2c25039aa98cb05aa095c5ad7e1904d329060200160405180910390a45050505050505050565b606080600060025467ffffffffffffffff8111156104ea576104ea611be8565b60405190808252806020026020018201604052801561052357816020015b610510611b8d565b8152602001906001900390816105085790505b509050600060025467ffffffffffffffff81111561054357610543611be8565b60405190808252806020026020018201604052801561056c578160200160208202803683370190505b5090506000805b6002548110156108b95760006004600061058e846001611944565b815260208101919091526040016000205460ff1660038111156105b3576105b3611f66565b14156108a757600360006105c8836001611944565b81526020808201929092526040908101600020815160e0810190925280546001600160a01b03168252600181018054929391929184019161060890611fb7565b80601f016020809104026020016040519081016040528092919081815260200182805461063490611fb7565b80156106815780601f1061065657610100808354040283529160200191610681565b820191906000526020600020905b81548152906001019060200180831161066457829003601f168201915b5050505050815260200160028201805461069a90611fb7565b80601f01602080910402602001604051908101604052809291908181526020018280546106c690611fb7565b80156107135780601f106106e857610100808354040283529160200191610713565b820191906000526020600020905b8154815290600101906020018083116106f657829003601f168201915b50505050508152602001600382015481526020016004820154815260200160058201805461074090611fb7565b80601f016020809104026020016040519081016040528092919081815260200182805461076c90611fb7565b80156107b95780601f1061078e576101008083540402835291602001916107b9565b820191906000526020600020905b81548152906001019060200180831161079c57829003601f168201915b505050505081526020016006820180546107d290611fb7565b80601f01602080910402602001604051908101604052809291908181526020018280546107fe90611fb7565b801561084b5780601f106108205761010080835404028352916020019161084b565b820191906000526020600020905b81548152906001019060200180831161082e57829003601f168201915b50505050508152505084838151811061086657610866611ff2565b602090810291909101015261087c816001611944565b83838151811061088e5761088e611ff2565b6020908102919091010152816108a38161201e565b9250505b806108b18161201e565b915050610573565b50808352815290939092509050565b606080600060025467ffffffffffffffff8111156108e8576108e8611be8565b60405190808252806020026020018201604052801561092157816020015b61090e611b8d565b8152602001906001900390816109065790505b509050600060025467ffffffffffffffff81111561094157610941611be8565b60405190808252806020026020018201604052801561096a578160200160208202803683370190505b5090506000805b6002548110156108b957336003600061098b846001611944565b81526020810191909152604001600020546001600160a01b03161415610c9957600360006109ba836001611944565b81526020808201929092526040908101600020815160e0810190925280546001600160a01b0316825260018101805492939192918401916109fa90611fb7565b80601f0160208091040260200160405190810160405280929190818152602001828054610a2690611fb7565b8015610a735780601f10610a4857610100808354040283529160200191610a73565b820191906000526020600020905b815481529060010190602001808311610a5657829003601f168201915b50505050508152602001600282018054610a8c90611fb7565b80601f0160208091040260200160405190810160405280929190818152602001828054610ab890611fb7565b8015610b055780601f10610ada57610100808354040283529160200191610b05565b820191906000526020600020905b815481529060010190602001808311610ae857829003601f168201915b505050505081526020016003820154815260200160048201548152602001600582018054610b3290611fb7565b80601f0160208091040260200160405190810160405280929190818152602001828054610b5e90611fb7565b8015610bab5780601f10610b8057610100808354040283529160200191610bab565b820191906000526020600020905b815481529060010190602001808311610b8e57829003601f168201915b50505050508152602001600682018054610bc490611fb7565b80601f0160208091040260200160405190810160405280929190818152602001828054610bf090611fb7565b8015610c3d5780601f10610c1257610100808354040283529160200191610c3d565b820191906000526020600020905b815481529060010190602001808311610c2057829003601f168201915b505050505081525050848381518110610c5857610c58611ff2565b6020908102919091010152610c6e816001611944565b838381518110610c8057610c80611ff2565b602090810291909101015281610c958161201e565b9250505b80610ca38161201e565b915050610971565b6000818152600660205260408120546060918167ffffffffffffffff811115610cd657610cd6611be8565b604051908082528060200260200182016040528015610d1b57816020015b6040805180820190915260008082526020820152815260200190600190039081610cf45790505b50905060005b82811015610e13576000858152600660205260409020805482908110610d4957610d49611ff2565b9060005260206000200160009054906101000a90046001600160a01b0316828281518110610d7957610d79611ff2565b6020908102919091018101516001600160a01b03909216909152600086815260078252604080822060069093528120805484908110610dba57610dba611ff2565b60009182526020808320909101546001600160a01b031683528201929092526040019020548251839083908110610df357610df3611ff2565b602090810291909101810151015280610e0b8161201e565b915050610d21565b509392505050565b33600090815260086020526040902054610e855760405162461bcd60e51b815260206004820152602560248201527f796f752068617665206e6f2070616e64696e6720616d6f756e7420696e207468604482015264065206170760dc1b6064820152608401610372565b33600090815260086020526040902054610e9f8180611959565b33600081815260086020526040902091909155610ebc9082611965565b336000818152600860205260408082205490519092917f6cca423c6ffc06e62a0acc433965e074b11c28479b0449250ce3ff65ac9e39fe91a350565b606080600060025467ffffffffffffffff811115610f1857610f18611be8565b604051908082528060200260200182016040528015610f41578160200160208202803683370190505b509050600060025467ffffffffffffffff811115610f6157610f61611be8565b604051908082528060200260200182016040528015610f8a578160200160208202803683370190505b5090506000805b6002548110156108b957610fa6816001611944565b848281518110610fb857610fb8611ff2565b602090810291909101015260076000610fd2836001611944565b81526020019081526020016000206000336001600160a01b03166001600160a01b031681526020019081526020016000205483828151811061101657611016611ff2565b60209081029190910101528161102b8161201e565b92505080806110399061201e565b915050610f91565b806000808281526004602052604090205460ff16600381111561106657611066611f66565b146110c35760405162461bcd60e51b815260206004820152602760248201527f63616d7061696e2066696e69736865642063616e7420646f6e61746520746f2060448201526631b0b6b830b4b760c91b6064820152608401610372565b816000341161111e5760405162461bcd60e51b815260206004820152602160248201527f796f752063616e7420646f6e6174652030206f72206d696e757320616d6f756e6044820152601d60fa1b6064820152608401610372565b600081815260056020908152604080832054600392839052922001546111509160019161114a91611959565b90611944565b341061119e5760405162461bcd60e51b815260206004820181905260248201527f616d6f756e7420697320677261746572207468656e20746865207461726765746044820152606401610372565b600083815260036020526040902060040154839042106111d05760405162461bcd60e51b815260040161037290612039565b6111da84336119e4565b156112765760008481526007602090815260408083203384529091529020546112039034611944565b60008581526007602090815260408083203384528252808320939093558682526005905220546112339034611944565b6000858152600560205260408082209290925590513491339187917ffb8c48ebe22c650456acfb7c599393bfc337c71a9eb356707c774ab3fdb8cf0391a4611314565b600084815260066020908152604080832080546001810182559084528284200180546001600160a01b0319163390811790915587845260078352818420908452825280832034908190558784526005909252909120546112d591611944565b6000858152600560205260408082209290925590513491339187917ffb8c48ebe22c650456acfb7c599393bfc337c71a9eb356707c774ab3fdb8cf0391a45b60008481526003602081815260408084209092015460059091529120541415611351576000848152600460205260409020805460ff191660011790555b50505050565b61135f611b8d565b611367611b8d565b6000838152600360208181526040832080546001600160a01b031685529286905252600101805461139790611fb7565b80601f01602080910402602001604051908101604052809291908181526020018280546113c390611fb7565b80156114105780601f106113e557610100808354040283529160200191611410565b820191906000526020600020905b8154815290600101906020018083116113f357829003601f168201915b50505050602080840192909252506000848152600390915260409020600201805461143a90611fb7565b80601f016020809104026020016040519081016040528092919081815260200182805461146690611fb7565b80156114b35780601f10611488576101008083540402835291602001916114b3565b820191906000526020600020905b81548152906001019060200180831161149657829003601f168201915b5050505060408084019290925250600084815260036020818152928220808201546060860152600481015460808601529186905290915260050180546114f890611fb7565b80601f016020809104026020016040519081016040528092919081815260200182805461152490611fb7565b80156115715780601f1061154657610100808354040283529160200191611571565b820191906000526020600020905b81548152906001019060200180831161155457829003601f168201915b505050505060a08201526000838152600360205260409020600601805461159790611fb7565b80601f01602080910402602001604051908101604052809291908181526020018280546115c390611fb7565b80156116105780601f106115e557610100808354040283529160200191611610565b820191906000526020600020905b8154815290600101906020018083116115f357829003601f168201915b505050505060c082015292915050565b60008181526003602052604090205481906001600160a01b031633146116585760405162461bcd60e51b81526004016103729061207b565b6000828152600360205260409020600401548290421161168a5760405162461bcd60e51b815260040161037290612039565b600083815260046020526040808220805460ff191660029081179091559051909185917fd3ca3f7c005f5869f49a70081c556b4b57c0c49f6dc379bc73e9b0dbc1237b199190a3505050565b60008181526003602052604090205481906001600160a01b0316331461170e5760405162461bcd60e51b81526004016103729061207b565b600082815260066020526040902054600160008481526004602052604090205460ff16600381111561174257611742611f66565b14156117cb576000838152600560209081526040808320543384526008909252909120546117709190612109565b3360009081526008602090815260408083209390935585825260048152828220805460ff191660031790556005905281812054915185917f80230996023d69b50793fa73f1919127c9d8e741d3989743c479169f22e7a28891a35b600260008481526004602052604090205460ff1660038111156117f0576117f0611f66565b141561193f5760005b818110156113515760008481526007602090815260408083206006909252822080549192918490811061182e5761182e611ff2565b60009182526020808320909101546001600160a01b031683528281019390935260409182018120548782526006909352908120805460089291908590811061187857611878611ff2565b60009182526020808320909101546001600160a01b031683528201929092526040019020546118a79190612109565b600085815260066020526040812080546008929190859081106118cc576118cc611ff2565b60009182526020808320909101546001600160a01b031683528281019390935260409182018120939093558683526005909152808220549051909186917f80230996023d69b50793fa73f1919127c9d8e741d3989743c479169f22e7a2889190a3806119378161201e565b9150506117f9565b505050565b60006119508284612109565b90505b92915050565b60006119508284612121565b61196d611aaf565b6040516000906001600160a01b0384169083156108fc0290849084818181858888f193505050509050806119d55760405162461bcd60e51b815260206004820152600f60248201526e151c985b9cd9995c8819985a5b1959608a1b6044820152606401610372565b506119e06001600055565b5050565b600082815260066020908152604080832080548251818502810185019093528083528493830182828015611a4157602002820191906000526020600020905b81546001600160a01b03168152600190910190602001808311611a23575b5050505050905060005b8151811015611aa457836001600160a01b0316828281518110611a7057611a70611ff2565b60200260200101516001600160a01b03161415611a9257600192505050611953565b80611a9c8161201e565b915050611a4b565b506000949350505050565b60026000541415611b025760405162461bcd60e51b815260206004820152601f60248201527f5265656e7472616e637947756172643a207265656e7472616e742063616c6c006044820152606401610372565b6002600055565b828054611b1590611fb7565b90600052602060002090601f016020900481019282611b375760008555611b7d565b82601f10611b5057805160ff1916838001178555611b7d565b82800160010185558215611b7d579182015b82811115611b7d578251825591602001919060010190611b62565b50611b89929150611bd3565b5090565b6040518060e0016040528060006001600160a01b031681526020016060815260200160608152602001600081526020016000815260200160608152602001606081525090565b5b80821115611b895760008155600101611bd4565b634e487b7160e01b600052604160045260246000fd5b600082601f830112611c0f57600080fd5b813567ffffffffffffffff80821115611c2a57611c2a611be8565b604051601f8301601f19908116603f01168101908282118183101715611c5257611c52611be8565b81604052838152866020858801011115611c6b57600080fd5b836020870160208301376000602085830101528094505050505092915050565b60008060008060008060c08789031215611ca457600080fd5b863567ffffffffffffffff80821115611cbc57600080fd5b611cc88a838b01611bfe565b97506020890135915080821115611cde57600080fd5b611cea8a838b01611bfe565b965060408901359550606089013594506080890135915080821115611d0e57600080fd5b611d1a8a838b01611bfe565b935060a0890135915080821115611d3057600080fd5b50611d3d89828a01611bfe565b9150509295509295509295565b6000815180845260005b81811015611d7057602081850181015186830182015201611d54565b81811115611d82576000602083870101525b50601f01601f19169290920160200192915050565b60018060a01b0381511682526000602082015160e06020850152611dbe60e0850182611d4a565b905060408301518482036040860152611dd78282611d4a565b915050606083015160608501526080830151608085015260a083015184820360a0860152611e058282611d4a565b91505060c083015184820360c0860152611e1f8282611d4a565b95945050505050565b600081518084526020808501945080840160005b83811015611e5857815187529582019590820190600101611e3c565b509495945050505050565b6000604082016040835280855180835260608501915060608160051b8601019250602080880160005b83811015611eba57605f19888703018552611ea8868351611d97565b95509382019390820190600101611e8c565b505085840381870152505050611e1f8185611e28565b600060208284031215611ee257600080fd5b5035919050565b602080825282518282018190526000919060409081850190868401855b82811015611f3457815180516001600160a01b03168552860151868501529284019290850190600101611f06565b5091979650505050505050565b604081526000611f546040830185611e28565b8281036020840152611e1f8185611e28565b634e487b7160e01b600052602160045260246000fd5b6020810160048310611f9e57634e487b7160e01b600052602160045260246000fd5b91905290565b6020815260006119506020830184611d97565b600181811c90821680611fcb57607f821691505b60208210811415611fec57634e487b7160e01b600052602260045260246000fd5b50919050565b634e487b7160e01b600052603260045260246000fd5b634e487b7160e01b600052601160045260246000fd5b600060001982141561203257612032612008565b5060010190565b60208082526022908201527f54686520646561646c696e652073686f756c64206265206120646174652070616040820152611cdd60f21b606082015260800190565b60208082526062908201527f796f7520617265206e6f74207468652063726561746f72206f7220746869732060408201527f63616d7061696e2069642c20736f20796f752063616e742063616c6c2074686960608201527f732066756e6374696f6e20616761696e737420746869732063616d7061696e206080820152611a5960f21b60a082015260c00190565b6000821982111561211c5761211c612008565b500190565b60008282101561213357612133612008565b50039056fea2646970667358221220d649d1fbb2f04f8a2f627d7545efd1aa9994f9978ec08bd1959b5425fec7faa264736f6c63430008090033",
  "linkReferences": {},
  "deployedLinkReferences": {}
}